:020000040000FA
:100000006802001069010000710100007301000026
:100010007501000077010000790100000000000078
:100020000000000000000000000000007B01000054
:100030007D010000000000007F0100008101000040
:1000400083010000830100008301000083010000A0
:100050008301000083010000830100008301000090
:100060008301000083010000830100008301000080
:100070008301000083010000830100008301000070
:100080008301000083010000830100008301000060
:100090008301000083010000830100008301000050
:1000A0008301000083010000830100008301000040
:1000B0008301000083010000830100008301000030
:1000C00083010000830100008301000000F002F8BA
:1000D00000F03AF80AA090E8000C82448344AAF1A8
:1000E0000107DA4501D100F02FF8AFF2090EBAE8A6
:1000F0000F0013F0010F18BFFB1A43F0010318475C
:100100006801000088010000103A24BF78C878C157
:10011000FAD8520724BF30C830C144BF04680C600D
:10012000704700000023002400250026103A28BF55
:1001300078C1FBD8520728BF30C148BF0B60704759
:100140001FB51FBD10B510BD00F02FF81146FFF709
:10015000F7FF00F0E5F900F04DF803B4FFF7F2FF08
:1001600003BC00F055F800000948804709480047E3
:10017000FEE7FEE7FEE7FEE7FEE7FEE7FEE7FEE757
:10018000FEE7FEE704480549034A054B70470000B7
:1001900001030000CD00000068000010680200109C
:1001A00068000010704770477047754600F02CF8E3
:1001B000AE4605006946534620F00700854618B054
:1001C00020B5FFF7DFFFBDE820404FF000064FF0FD
:1001D00000074FF000084FF0000B21F00701AC467C
:1001E000ACE8C009ACE8C009ACE8C009ACE8C0099B
:1001F0008D46704710B50446AFF300802046BDE839
:100200001040FFF7AABF000000487047040000102C
:1002100001491820ABBEFEE726000200704700002F
:1002200000BF0449097D01F001010029F9D001490D
:100230000878704700C0004000BF0449097D01F004
:1002400020010029F9D001490870704700C0004022
:1002500000B5024603E01078FFF7EEFF521C10785D
:100260000028F8D100BD0000E005000000000010EB
:100270000400000008010000E40500000400001074
:1002800064020000240100000000000000000000E3
:10029000000000000000000000000000000000005E
:1002A000000000000000000000000000000000004E
:1002B000000000000000000000000000000000003E
:1002C000000000000000000000000000000000002E
:1002D000000000000000000000000000000000001E
:1002E000000000000000000000000000000000000E
:1002F000000000000000000000000000FFFFFFFF02
:1003000020208149086000BF7F48006800F040005D
:100310000028F9D003207C499C39086000207B49E3
:10032000C1F8A80178490C31086001207649943958
:1003300008600B207549843108600120091F08609E
:10034000AA2072498C31086055207049C1F88C0090
:1003500000BF6E488830006800F080600028F8D048
:1003600003206A4980310860AA206849C1F88C00DE
:10037000552066498C31086023206449A431086007
:100380000120091F0860AA206049AC31086055208F
:10039000086000BF5D48A830006800F48060002855
:1003A000F8D003205949A0310860AA205749C1F864
:1003B000AC0055205549AC31086055485349C4310B
:1003C000086000205149C1F8C8010846D0F88800EB
:1003D000C0F30160032860D14B489438006800F0F6
:1003E000030030B1012820D0022839D0032853D18E
:1003F00000E000BF454888300068C0F30E00401C94
:1004000041004248D0F88800C0F30740401CB1FBCF
:10041000F0F0404948433C499C390968C9B2491C3D
:10042000B0FBF1F03C49086036E03848883000689D
:10043000C0F30E00401C41003448D0F88800C0F3DF
:100440000740401CB1FBF0F0344948432E499C3929
:100450000968C9B2491CB0FBF1F02F4908601BE0E4
:100460002A4888300068C0F30E00401C410027482D
:10047000D0F88800C0F30740401CB1FBF0F04FF407
:10048000FA41484320499C390968C9B2491CB0FB6C
:10049000F1F02149086000BF30E01B489438006843
:1004A00000F0030030B1012810D0022819D0032831
:1004B00023D100E000BF14489C380068C0B2401C43
:1004C0001449B1FBF0F01449086016E00E489C385E
:1004D0000068C0B2401C1149B1FBF0F00E49086041
:1004E0000BE009489C380068C0B2401C4FF4FA4148
:1004F000B1FBF0F00849086000BF00BF43F23A00CA
:100500000249086070470000A0C10F4000C00F40C2
:10051000DE87280400093D0000000010001BB70022
:10052000FFF7EEFE2248006840F008002049C43979
:10053000C1F8C4001F48006820F0F0001D490860A1
:100540000846006840F05000086007201A49087209
:10055000832008731948006885084FF41630B5FBEE
:10056000F0F40C7008460078201A08710846007BE9
:1005700020F0800008735520FFF75EFE4120FFF752
:100580005BFE5220FFF758FE5420FFF755FE302047
:10059000FFF752FE0AA0FFF75BFE0BA0FFF758FE25
:1005A00005E0FFF73DFE06463046FFF745FEF8E75B
:1005B000C4C00F4000C0024000C000400000001056
:1005C00020544553540D0A000D0A455449512054F6
:1005D0004543484E4F4C4F474945530D0A000000D4
:0405E00000093D00D1
:04000005000001698D
:00000001FF
